:020000040800F2
:1000000000000220992D0008011F00080F1F0008A2
:10001000151F00081B1F0008211F0008000000001A
:10002000000000000000000000000000271F000882
:10003000351F000800000000431F0008511F000882
:10004000E92D0008E92D0008E92D0008E92D000838
:10005000E92D0008E92D0008E92D0008E92D000828
:10006000E92D0008E92D0008E92D0008E92D000818
:10007000E92D0008E92D0008E92D0008E92D000808
:10008000E92D0008E92D0008E92D0008E92D0008F8
:10009000E92D0008E92D0008E92D0008E92D0008E8
:1000A000E92D0008E92D0008E92D0008E92D0008D8
:1000B000E92D0008E92D0008E92D0008E92D0008C8
:1000C000E92D0008E92D0008E92D0008E92D0008B8
:1000D000E92D0008E92D0008E92D0008E92D0008A8
:1000E000E92D0008E92D0008E92D0008E92D000898
:1000F000E92D0008E92D0008E92D0008E92D000888
:10010000E92D0008E92D0008E92D0008E92D000877
:10011000E92D0008E92D0008E92D0008E92D000867
:10012000E92D0008E92D0008E92D0008E92D000857
:10013000E92D0008E92D0008E92D0008E92D000847
:10014000E92D0008E92D0008E92D0008E92D000837
:10015000E92D0008E92D0008E92D0008E92D000827
:10016000E92D0008E92D0008E92D0008E92D000817
:10017000E92D0008E92D0008E92D00080000000025
:08018000E92D0008E92D00083B
:1001880010B5054C237833B9044B13B10448AFF3C9
:1001980000800123237010BD0C0000200000000027
:1001A800442E000808B5034B1BB103490348AFF3BD
:1001B800008008BD0000000010000020442E000848
:1001C8007BB972B90029BEBF00204FF0004106E09C
:1001D80008BF00281CBF6FF000414FF0FF3000F04F
:1001E800C5B9ADF1080C6DE904CE002909DB002B77
:1001F8001ADB00F04DF8DDF804E0DDE9022304B075
:100208007047404261EB4101002B1BDB00F040F8D6
:10021800DDF804E0DDE9022304B0404261EB41016E
:10022800524263EB43037047524263EB430300F0CF
:100238002FF8DDF804E0DDE9022304B0404261EB69
:1002480041017047524263EB430300F021F8DDF8A7
:1002580004E0DDE9022304B0524263EB4303704734
:1002680053B94AB9002908BF00281CBF4FF0FF3115
:100278004FF0FF3000F07AB9ADF1080C6DE904CE0B
:1002880000F006F8DDF804E0DDE9022304B0704769
:100298002DE9F0478C460D460446089E002B51D1A7
:1002A8008A4217466DD9B2FA82FEBEF1000F0BD012
:1002B800CEF1200C01FA0EF520FA0CFC02FA0EF72A
:1002C8004CEA050C00FA0EF44FEA174A250CBCFB61
:1002D800FAF81FFA87F90AFB18CC45EA0C4508FB1F
:1002E80009F3AB420AD9ED1908F1FF3280F02381F6
:1002F800AB4240F22081A8F102083D44ED1AA4B2B5
:10030800B5FBFAF00AFB105544EA054400FB09F96D
:10031800A14509D9E41900F1FF3380F00A81A1450C
:1003280040F2078102383C44A4EB090440EA084043
:100338000021002E61D024FA0EF40023346073608B
:10034800BDE8F0878B4207D9002E54D0002186E8FB
:1003580021000846BDE8F087B3FA83F1002940F090
:100368008E80AB4202D3824200F2FA80841A65EB97
:1003780003050120AC46002E3FD086E81010BDE8EA
:10038800F08712B90127B7FBF2F7B7FA87FEBEF17B
:10039800000F34D1EB1B3A0C1FFA87FC0121B3FB89
:1003A800F2F8250C02FB183345EA03450CFB08F369
:1003B800AB4207D9ED1908F1FF3002D2AB4200F287
:1003C800D1808046ED1AA3B2B5FBF2F002FB1055BE
:1003D80043EA05440CFB00FCA44507D9E41900F1E5
:1003E800FF3302D2A44500F2B8801846A4EB0C04EF
:1003F80040EA08409DE731463046BDE8F087CEF137
:10040800200405FA0EF307FA0EF720FA04F83A0C5E
:1004180025FA04F448EA0308B4FBF2F14FEA184558
:1004280002FB11441FFA87FC45EA044501FB0CF363
:10043800AB4200FA0EF409D9ED1901F1FF3080F052
:100448008A80AB4240F2878002393D44EB1A1FFA9A
:1004580088F5B3FBF2F002FB103345EA034500FBD5
:100468000CF3AB4207D9ED1900F1FF386FD2AB425C
:100478006DD902383D44EB1A40EA01418FE7C1F1DA
:10048800200722FA07F88B4005FA01F448EA03032B
:1004980020FA07FE4FEA134CFD404EEA040EB5FB66
:1004A800FCF94FEA1E440CFB19551FFA83F844EA7D
:1004B800054509FB08F4AC4202FA01F200FA01FA18
:1004C80008D9ED1809F1FF3043D2AC4241D9A9F15E
:1004D80002091D442D1B1FFA8EFEB5FBFCF00CFB18
:1004E80010554EEA054400FB08F8A04507D9E41862
:1004F80000F1FF3529D2A04527D902381C4440EA2B
:100508000940A4EB0804A0FB02894C45C6464D46A9
:1005180015D312D056B1BAEB0E0364EB050404FAF6
:1005280007F7CB401F43CC40376074600021BDE81B
:10053800F0871846F8E69046E0E6C245EAD2B8EBFE
:10054800020E69EB03050138E4E72846D7E7404681
:1005580091E78146BEE7014678E702383C4445E723
:10056800084608E7A8F102083D442BE7704700BF9A
:1005780080B500AF0E4A0E4B1B6843F4007313603E
:100588000B4A0B4B1B6843F480631360084A084B03
:100598001B6843F480731360032000F02DF90020DA
:1005A80000F008F801F038FC0023184680BD00BFB1
:1005B800003C024080B582B000AF7860124B1A68E8
:1005C800124B1B7819464FF47A73B3FBF1F3B2FB65
:1005D800F3F3184600F037F90346002B01D0012346
:1005E8000EE07B680F2B0AD8002279684FF0FF30A5
:1005F80000F00DF9064A7B681360002300E0012330
:1006080018460837BD4680BD0800002004000020B9
:100618000000002080B400AF064B1B781A46064B3A
:100628001B681344044A136000BFBD465DF8047B91
:10063800704700BF040000203000002080B400AFE5
:10064800034B1B681846BD465DF8047B704700BF26
:100658003000002080B584B000AF7860FFF7EEFF6F
:10066800B8607B68FB60FB68B3F1FF3F05D0094BBE
:100678001B781A46FB681344FB6000BFFFF7DEFFD8
:100688000246BB68D21AFB689A42F7D300BF1037FC
:10069800BD4680BD0400002080B485B000AF7860FE
:1006A8007B6803F00703FB600C4BDB68BB60BA6830
:1006B8004FF6FF031340BB60FB681A02BB68134385
:1006C80043F0BF6343F40033BB60044ABB68D360A4
:1006D80000BF1437BD465DF8047B704700ED00E0AD
:1006E80080B400AF044BDB681B0A03F0070318460D
:1006F800BD465DF8047B704700ED00E080B483B030
:1007080000AF03463960FB7197F90730002B0ADB0D
:100718000D4997F907303A68D2B21201D2B20B44A8
:1007280083F800230AE00949FB7903F00F03043B2F
:100738003A68D2B21201D2B20B441A7600BF0C3713
:10074800BD465DF8047B704700E100E000ED00E085
:1007580080B489B000AFF860B9607A60FB6803F0D4
:100768000703FB61FB69C3F10703042B28BF0423BC
:10077800BB61FB690433062B02D9FB69033B00E02C
:1007880000237B610122BB6902FA03F35A1EBB688E
:100798001A407B699A4001217B6901FA03F3591ECB
:1007A8007B680B40134318462437BD465DF8047B2D
:1007B8007047000080B582B000AF78607B68013B6D
:1007C800B3F1807F01D301230FE00A4A7B68013B24
:1007D80053600F214FF0FF30FFF790FF054B0022C9
:1007E8009A60044B07221A60002318460837BD4652
:1007F80080BD00BF10E000E080B582B000AF786037
:100808007868FFF749FF00BF0837BD4680BD80B54F
:1008180086B000AF0346B9607A60FB7300237B6142
:10082800FFF75EFF78617A68B9687869FFF790FF2B
:10083800024697F90F3011461846FFF75FFF00BFD1
:100848001837BD4680BD80B582B000AF7860786843
:10085800FFF7B0FF034618460837BD4680BD0000C5
:1008680080B489B000AF7860396000237B610023D1
:100878003B610023BB610023FB616BE10122FB6943
:1008880002FA03F37B613B681A687B6913403B619A
:100898003A697B699A4240F05A813B685B68022B4F
:1008A80003D03B685B68122B23D1FB69DA087B68AD
:1008B800083253F82230BB61FB6903F007039B0041
:1008C8000F2202FA03F3DB43BA691340BB613B68AA
:1008D8001A69FB6903F007039B0002FA03F3BA697C
:1008E8001343BB61FB69DA087B680832B96943F8CE
:1008F80022107B681B68BB61FB695B00032202FA5C
:1009080003F3DB43BA691340BB613B685B6803F0E0
:100918000302FB695B0002FA03F3BA691343BB6184
:100928007B68BA691A603B685B68012B0BD03B682F
:100938005B68022B07D03B685B68112B03D03B68D0
:100948005B68122B30D17B689B68BB61FB695B00DD
:10095800032202FA03F3DB43BA691340BB613B6825
:10096800DA68FB695B0002FA03F3BA691343BB61F7
:100978007B68BA699A607B685B68BB610122FB6926
:1009880002FA03F3DB43BA691340BB613B685B6857
:100998001B0903F00102FB6902FA03F3BA69134366
:1009A800BB617B68BA695A607B68DB68BB61FB69BD
:1009B8005B00032202FA03F3DB43BA691340BB610D
:1009C8003B689A68FB695B0002FA03F3BA69134350
:1009D800BB617B68BA69DA603B685B6803F0805387
:1009E800002B00F0B4800023FB605F4A5E4B5B6C19
:1009F80043F4804353645C4B5B6C03F48043FB60BB
:100A0800FB685A4AFB699B08023352F82330BB61E2
:100A1800FB6903F003039B000F2202FA03F3DB4395
:100A2800BA691340BB617B68514A93422BD07B68FB
:100A3800504A934225D07B684F4A93421FD07B6827
:100A48004E4A934219D07B684D4A934213D07B6833
:100A58004C4A93420DD07B684B4A934207D07B683F
:100A68004A4A934201D107230EE008230CE00623EB
:100A78000AE0052308E0042306E0032304E0022338
:100A880002E0012300E00023FA6902F00302920069
:100A98009340BA691343BB613449FB699B0802332D
:100AA800BA6941F823203A4B1B68BB613B69DB43B9
:100AB800BA691340BB613B685B6803F48033002B61
:100AC80003D0BA693B691343BB61314ABB69136000
:100AD8002F4B5B68BB613B69DB43BA691340BB6161
:100AE8003B685B6803F40033002B03D0BA693B69A9
:100AF8001343BB61264ABB695360254B9B68BB61A6
:100B08003B69DB43BA691340BB613B685B6803F42C
:100B18008013002B03D0BA693B691343BB611C4A9D
:100B2800BB6993601A4BDB68BB613B69DB43BA69FD
:100B38001340BB613B685B6803F40013002B03D0D0
:100B4800BA693B691343BB61114ABB69D360FB694E
:100B58000133FB61FB690F2B7FF690AE00BF243792
:100B6800BD465DF8047B70470038024000380140FC
:100B7800000002400004024000080240000C02404D
:100B8800001002400014024000180240001C0240FD
:100B9800003C014080B483B000AF78600B467B8096
:100BA80013467B707B78002B03D07A887B689A6128
:100BB80003E07B881A047B689A6100BF0C37BD4646
:100BC8005DF8047B7047000080B586B000AF7860A0
:100BD8007B68002B01D101232DE27B681B6803F0A1
:100BE8000103002B75D0A34B9B6803F00C03042B67
:100BF8000CD0A04B9B6803F00C03082B12D19D4B23
:100C08005B6803F48003B3F5800F0BD1994B1B6825
:100C180003F40033002B5BD07B685B68002B57D153
:100C2800012308E27B685B68B3F5803F06D1914AEF
:100C3800904B1B6843F4803313601DE07B685B684E
:100C4800B3F5A02F0CD18B4A8A4B1B6843F4802341
:100C58001360884A874B1B6843F4803313600BE0AA
:100C6800844A844B1B6823F480331360814A814B88
:100C78001B6823F4802313607B685B68002B13D008
:100C8800FFF7DCFC386108E0FFF7D8FC02463B6957
:100C9800D31A642B01D90323CDE1764B1B6803F4E7
:100CA8000033002BF0D014E0FFF7C8FC386108E0EF
:100CB800FFF7C4FC02463B69D31A642B01D903230E
:100CC800B9E16C4B1B6803F40033002BF0D100E052
:100CD80000BF7B681B6803F00203002B63D0654BE1
:100CE8009B6803F00C03002B0BD0624B9B6803F04E
:100CF8000C03082B1CD15F4B5B6803F48003002BAB
:100D080016D15C4B1B6803F00203002B05D07B68EF
:100D1800DB68012B01D001238DE15649554B1B6837
:100D280023F0F8027B681B69DB0013430B603AE091
:100D38007B68DB68002B20D04F4B01221A60FFF73D
:100D48007DFC386108E0FFF779FC02463B69D31A5D
:100D5800022B01D903236EE1464B1B6803F0020303
:100D6800002BF0D04349434B1B6823F0F8027B6803
:100D78001B69DB0013430B6015E03F4B00221A6030
:100D8800FFF75CFC386108E0FFF758FC02463B6956
:100D9800D31A022B01D903234DE1364B1B6803F00C
:100DA8000203002BF0D17B681B6803F00803002BBB
:100DB80030D07B685B69002B16D0304B01221A605B
:100DC800FFF73CFC386108E0FFF738FC02463B6956
:100DD800D31A022B01D903232DE1264B5B6F03F0B5
:100DE8000203002BF0D015E0244B00221A60FFF715
:100DF80025FC386108E0FFF721FC02463B69D31A5D
:100E0800022B01D9032316E11A4B5B6F03F002038F
:100E1800002BF0D17B681B6803F00403002B00F063
:100E2800A0800023FB75134B1B6C03F08053002B31
:100E38000FD10023FB600F4A0E4B1B6C43F080530D
:100E480013640C4B1B6C03F08053FB60FB6801239D
:100E5800FB750B4B1B6803F48073002B21D1084AE8
:100E6800074B1B6843F480731360FFF7E7FB386197
:100E780011E000BF0038024000004742800E4742A0
:100E880000700040FFF7DAFB02463B69D31A022BD9
:100E980001D90323CFE06A4B1B6803F48073002B4E
:100EA800F0D07B689B68012B06D1664A654B1B6FA7
:100EB80043F0010313671CE07B689B68052B0CD18A
:100EC800604A604B1B6F43F0040313675D4A5D4B38
:100ED8001B6F43F0010313670BE05A4A594B1B6F12
:100EE80023F001031367574A564B1B6F23F0040383
:100EF80013677B689B68002B15D0FFF79FFB386151
:100F08000AE0FFF79BFB02463B69D31A41F288329D
:100F1800934201D903238EE04A4B1B6F03F002036F
:100F2800002BEED014E0FFF789FB38610AE0FFF7E9
:100F380085FB02463B69D31A41F28832934201D9B4
:100F4800032378E03F4B1B6F03F00203002BEED125
:100F5800FB7D012B05D13B4A3A4B1B6C23F0805398
:100F680013647B689B69002B64D0364B9B6803F045
:100F78000C03082B5CD07B689B69022B41D1324B58
:100F880000221A60FFF75AFB386108E0FFF756FBAA
:100F980002463B69D31A022B01D903234BE0294BA4
:100FA8001B6803F00073002BF0D126497B68DA69CF
:100FB8007B681B6A1A437B685B6A9B011A437B68E0
:100FC8009B6A5B08013B1B041A437B68DB6A1B06B0
:100FD80013434B601C4B01221A60FFF72FFB38614B
:100FE80008E0FFF72BFB02463B69D31A022B01D915
:100FF800032320E0134B1B6803F00073002BF0D091
:1010080018E0114B00221A60FFF718FB386108E05E
:10101800FFF714FB02463B69D31A022B01D90323BD
:1010280009E0084B1B6803F00073002BF0D101E0C6
:10103800012300E0002318461837BD4680BD00BFD5
:1010480000700040003802406000474280B584B01C
:1010580000AF786039607B68002B01D10123CAE0BA
:10106800674B1B6803F00F023B689A420CD2644B33
:101078003A68D2B21A70624B1B6803F00F023B68E1
:101088009A4201D00123B6E07B681B6803F0020393
:10109800002B20D07B681B6803F00403002B05D0CD
:1010A800584A584B9B6843F4E05393607B681B682D
:1010B80003F00803002B05D0524A524B9B6843F4B7
:1010C800604393604F494F4B9B6823F0F0027B6865
:1010D8009B6813438B607B681B6803F00103002B3C
:1010E80044D07B685B68012B07D1464B1B6803F42F
:1010F8000033002B19D101237DE07B685B68022B4C
:1011080003D07B685B68032B07D13E4B1B6803F059
:101118000073002B09D101236DE03A4B1B6803F0E3
:101128000203002B01D1012365E03649354B9B684A
:1011380023F003027B685B6813438B60FFF77EFA3A
:10114800F8600AE0FFF77AFA0246FB68D31A41F220
:101158008832934201D903234DE02A4B9B6803F060
:101168000C027B685B689B009A42EBD1244B1B689E
:1011780003F00F023B689A420CD9214B3A68D2B26D
:101188001A701F4B1B6803F00F023B689A4201D08C
:10119800012330E07B681B6803F00403002B08D0B0
:1011A8001849184B9B6823F4E0527B68DB681343AB
:1011B8008B607B681B6803F00803002B09D011497A
:1011C800104B9B6823F460427B681B69DB00134368
:1011D8008B6000F01DF801460A4B9B681B0903F061
:1011E8000F03094AD35C21FA03F3084A136000206D
:1011F800FFF7E0F9002318461037BD4680BD00BF51
:10120800003C0240003802405C2E00080800002024
:101218002DE9F04F8FB000AF0023FB6200237B6302
:101228000023BB6200233B63624B9B6803F00C0303
:10123800042B07D0082B08D0002B40F0B2805E4B5F
:101248003B63B1E05D4B3B63AEE05A4B5B6803F038
:101258003F03FB62574B5B6803F48003002B4ED0BF
:10126800544B5B689B094FF0000440F2FF114FF0AC
:10127800000201EA030102EA04020B461446600177
:101288007862786A40EAD36078625B013B62D7E9AA
:1012980008345B1A64EB02044FEA841949EA93693B
:1012A8004FEA8318B8EB030869EB04094FEAC9034E
:1012B800FB61FB6943EA5873FB614FEAC803BB61F2
:1012C800D7E9068918EB010849EB02094FEA4923D7
:1012D8007B617B6943EAD8537B614FEA48233B61D2
:1012E800D7E9048940464946FB6A4FF000041A468C
:1012F8002346FEF7B5FF03460C467B6343E02D4BC0
:101308005B689B094FF0000440F2FF114FF00002A8
:1013180001EA030102EA04020B4614466001F86080
:10132800F86840EAD360F8605B01BB60D7E9023433
:101338005B1A64EB0204A60146EA93669D01ED1A66
:1013480066EB0406F3007B607B6843EA55737B60B9
:10135800EB003B6097E860006D1846EB02064FEA29
:10136800862B4BEA955B4FEA852A55465E4628460A
:101378003146FB6A4FF000041A462346FEF770FF19
:1013880003460C467B630B4B5B681B0C03F00303A3
:1013980001335B00BB627A6BBB6AB2FBF3F33B635E
:1013A80002E0054B3B6300BF3B6B18463C37BD462C
:1013B800BDE8F08F003802400024F40000127A00E3
:1013C80080B582B000AF78607B68002B01D1012323
:1013D80055E07B6800229A627B6893F85130DBB253
:1013E800002B06D17B68002283F85020786800F033
:1013F8003BFD7B68022283F851207B681B687A6872
:101408001268126822F040021A607B681B687A68CA
:1014180051687A68926811437A68D26811437A6889
:10142800126911437A68526911437A68926902F421
:10143800007211437A68D26911437A68126A1143BB
:101448007A68926A0A431A607B681B687A689269AC
:10145800120C02F004017A68526A0A435A607B68E7
:101468001B687A681268D26922F40062DA617B68C4
:1014780000225A657B68012283F851200023184610
:101488000837BD4680BD80B588B000AFF860B96048
:101498003B601346FB800023FB77FB6893F85030D2
:1014A800012B01D102231CE1FB68012283F85020A3
:1014B800FFF7C4F8B861FB88FB82FB6893F85130EA
:1014C800DBB2012B02D00223FB7701E1BB68002BC2
:1014D80002D0FB88002B02D10123FB77F8E0FB68E0
:1014E800032283F85120FB6800225A65FB68BA681A
:1014F8001A63FB68FA889A86FB68FA88DA86FB68BA
:1015080000229A63FB6800229A87FB680022DA8728
:10151800FB6800225A64FB6800221A64FB689B6817
:10152800B3F5004F07D1FB681B68FA6812681268A8
:1015380042F480421A60FB681B681B6803F0400392
:10154800402B07D0FB681B68FA681268126842F0E3
:1015580040021A60FB68DB68B3F5006F4BD1FB688B
:101568005B68002B02D0FB8A012B3ED1FB681B680D
:10157800FA68126B1288DA60FB681B6B9A1CFB68AE
:101588001A63FB68DB8E9BB2013B9AB2FB68DA8672
:101598002BE0FB681B689B6803F00203022B12D147
:1015A800FB681B68FA68126B1288DA60FB681B6BB1
:1015B8009A1CFB681A63FB68DB8E9BB2013B9AB2EC
:1015C800FB68DA8611E0FFF739F80246BB69D21AE0
:1015D8003B689A4203D33B68B3F1FF3F02D13B68B3
:1015E800002B02D10323FB7772E0FB68DB8E9BB2F2
:1015F800002BCED14CE0FB685B68002B02D0FB8A45
:10160800012B40D1FB681B680C33FA68126B127807
:101618001A70FB681B6B5A1CFB681A63FB68DB8E2D
:101628009BB2013B9AB2FB68DA862CE0FB681B6828
:101638009B6803F00203022B13D1FB681B680C3371
:10164800FA68126B12781A70FB681B6B5A1CFB68DD
:101658001A63FB68DB8E9BB2013B9AB2FB68DA86A1
:1016680011E0FEF7EBFF0246BB69D21A3B689A42CB
:1016780003D33B68B3F1FF3F02D13B68002B02D193
:101688000323FB7724E0FB68DB8E9BB2002BCDD1D4
:10169800BA693968F86800F033FA0346002B02D0BB
:1016A800FB6820225A65FB689B68002B0AD100233F
:1016B8003B61FB681B68DB683B61FB681B689B68D8
:1016C8003B613B69FB685B6D002B01D00123FB7715
:1016D800FB68012283F85120FB68002283F8502020
:1016E800FB7F18462037BD4680BD80B58CB000AF63
:1016F800F860B9607A607B800123FB62002387F879
:101708002B30FB6893F85030012B01D1022388E17C
:10171800FB68012283F85020FEF790FF7862FB688F
:1017280093F8513087F82330FB685B68FB617B884E
:101738007B8397F82330012B0FD0FB69B3F5827FA9
:1017480007D1FB689B68002B03D197F82330042B43
:1017580003D0022387F82B3059E1BB68002B05D052
:101768007B68002B02D07B88002B03D1012387F8EC
:101778002B304CE1FB6893F85130DBB2042B03D0DB
:10178800FB68052283F85120FB6800225A65FB6834
:101798007A689A63FB687A88DA87FB687A889A8716
:1017A800FB68BA681A63FB687A88DA86FB687A8805
:1017B8009A86FB6800221A64FB6800225A64FB6858
:1017C8001B681B6803F04003402B07D0FB681B68AD
:1017D800FA681268126842F040021A60FB68DB6817
:1017E800B3F5006F78D1FB685B68002B02D07B8B68
:1017F800012B66D1FB681B68FA68126B1288DA60E5
:10180800FB681B6B9A1CFB681A63FB68DB8E9BB238
:10181800013B9AB2FB68DA8653E0FB681B689B6859
:1018280003F00203022B1BD1FB68DB8E9BB2002B5B
:1018380016D0FB6A012B13D1FB681B68FA68126B80
:101848001288DA60FB681B6B9A1CFB681A63FB68DA
:10185800DB8E9BB2013B9AB2FB68DA860023FB62FF
:10186800FB681B689B6803F00103012B19D1FB6817
:10187800DB8F9BB2002B14D0FB689B6BFA68126855
:10188800D26892B21A80FB689B6B9A1CFB689A63B9
:10189800FB68DB8F9BB2013B9AB2FB68DA870123B6
:1018A800FB62FEF7CBFE02467B6AD21ABB6B9A42FA
:1018B80007D3BB6BB3F1FF3F03D0032387F82B306B
:1018C800A5E0FB68DB8E9BB2002BA6D1FB68DB8F03
:1018D8009BB2002BA1D17CE0FB685B68002B02D097
:1018E8007B8B012B6BD1FB681B680C33FA68126B7E
:1018F80012781A70FB681B6B5A1CFB681A63FB682A
:10190800DB8E9BB2013B9AB2FB68DA8657E0FB6834
:101918001B689B6803F00203022B1CD1FB68DB8E5B
:101928009BB2002B17D0FB6A012B14D1FB681B68F4
:101938000C33FA68126B12781A70FB681B6B5A1C0E
:10194800FB681A63FB68DB8E9BB2013B9AB2FB68AB
:10195800DA860023FB62FB681B689B6803F00103BF
:10196800012B19D1FB68DB8F9BB2002B14D0FB68CD
:101978009B6BFA681268D268D2B21A70FB689B6BCC
:101988005A1CFB689A63FB68DB8F9BB2013B9AB2D7
:10199800FB68DA870123FB62FEF750FE02467B6A8A
:1019A800D21ABB6B9A4203D3BB6BB3F1FF3F02D190
:1019B800BB6B002B03D1032387F82B3027E0FB6890
:1019C800DB8E9BB2002BA2D1FB68DB8F9BB2002B76
:1019D8009DD17A6AB96BF86800F092F80346002B3B
:1019E80006D0012387F82B30FB6820225A650EE0C9
:1019F800FB689B68002B0AD100237B61FB681B688E
:101A0800DB687B61FB681B689B687B617B69FB68A3
:101A1800012283F85120FB68002283F8502097F8B0
:101A28002B3018463037BD4680BD80B584B000AF36
:101A3800F860B9603B601346FB714CE03B68B3F15A
:101A4800FF3F48D0FEF7FAFD0246BB69D21A3B6851
:101A58009A4202D23B68002B3DD1FB681B68FA68AA
:101A68001268526822F0E0025A60FB685B68B3F5BE
:101A7800827F11D1FB689B68B3F5004F04D0FB68E7
:101A88009B68B3F5806F07D1FB681B68FA6812681A
:101A9800126822F040021A60FB689B6AB3F5005F87
:101AA8000FD1FB681B68FA681268126822F40052AA
:101AB8001A60FB681B68FA681268126842F40052E0
:101AC8001A60FB68012283F85120FB68002283F822
:101AD800502003230FE0FB681B689A68BB681A4014
:101AE800BB689A420CBF01230023DBB21A46FB797C
:101AF8009A42A3D1002318461037BD4680BD000086
:101B080080B588B002AFF860B9607A601B4B1B687B
:101B18001B4AA2FB03235B0D4FF47A7202FB03F30B
:101B28007B61FB685B68B3F5827F12D17B680093A9
:101B3800BB6800228021F868FFF777FF0346002B77
:101B480016D0FB685B6D43F02002FB685A650323DF
:101B58000FE07B69002B0AD07B69013B7B61FB6846
:101B68001B689B6803F08003802BF2D000E000BF65
:101B7800002318461837BD4680BD00BF0800002066
:101B8800819F5E1680B500AFFEF7F2FC00F016F8F4
:101B980000F0B4F800F07CF8012208210648FEF7AE
:101BA800F9FF002240210448FEF7F4FF6420FEF705
:101BB80051FD00F0E5F8F9E70000024080B594B067
:101BC80000AF07F1200330220021184601F02EF95A
:101BD80007F10C0300221A605A609A60DA601A61F1
:101BE8000023BB60284A284B1B6C43F080531364C6
:101BF800254B1B6C03F08053BB60BB6800237B60E4
:101C0800224A224B1B6843F4804313601F4B1B6816
:101C180003F480437B607B6801233B624FF4A0237D
:101C28007B620223BB634FF48003FB6304233B64A2
:101C3800A0237B640223BB640423FB6407F1200315
:101C48001846FEF7C1FF0346002B01D000F0DCF870
:101C58000F23FB6002233B6100237B614FF4A053F9
:101C6800BB614FF48053FB6107F10C030521184653
:101C7800FFF7ECF90346002B01D000F0C5F800BFD0
:101C88005037BD4680BD00BF00380240007000409C
:101C980080B500AF174B184A1A60164B4FF4827282
:101CA8005A60144B00229A60124B0022DA60114BE2
:101CB80000221A610F4B00225A610E4B4FF400723A
:101CC8009A610C4B1022DA610A4B00221A62094B06
:101CD80000225A62074B00229A62064B0A22DA62F5
:101CE8000448FFF76DFB0346002B01D000F08CF889
:101CF80000BF80BD440000200030014080B588B09E
:101D080000AF07F10C0300221A605A609A60DA608B
:101D18001A610023BB60184A174B1B6B43F0800302
:101D28001363154B1B6B03F08003BB60BB68002378
:101D38007B60114A104B1B6B43F0010313630E4B7E
:101D48001B6B03F001037B607B68002208210B48B2
:101D5800FEF720FF0823FB6001233B6100237B6122
:101D68000023BB6107F10C0319460448FEF778FD10
:101D780000BF2037BD4680BD003802400000024049
:101D880080B584B004AF1E4B01221A731D4B1B781B
:101D9800002B02D0012B18D02EE0642302930323DA
:101DA800019304230093102380220C21C02000F00B
:101DB800E1F903461A46124B1A73114B1B7B002B91
:101DC80019D1104B01221A7015E000F07FFAF0EEDD
:101DD800407A0B4BC3ED007A00F0DAFAF0EE407A65
:101DE800074BC3ED017A00F015FDF0EE407A044B85
:101DF800C3ED027A00E000BF00BFBD4680BD00BF52
:101E0800340000202800002080B400AF00BFBD4689
:101E18005DF8047B7047000080B483B000AF0023F6
:101E28007B60104A0F4B5B6C43F4804353640D4B4B
:101E38005B6C03F480437B607B6800233B60094A4A
:101E4800084B1B6C43F080531364064B1B6C03F068
:101E580080533B603B6800BF0C37BD465DF8047B90
:101E6800704700BF0038024080B58AB000AF786084
:101E780007F1140300221A605A609A60DA601A6146
:101E88007B681B68194A93422BD100233B61184A8F
:101E9800174B5B6C43F480535364154B5B6C03F432
:101EA80080533B613B690023FB60114A104B1B6B5D
:101EB80043F0010313630E4B1B6B03F00103FB603C
:101EC800FB68E0237B610223BB610023FB610323E2
:101ED8003B6205237B6207F1140319460548FEF7A8
:101EE800BFFC00BF2837BD4680BD00BF00300140A1
:101EF800003802400000024080B400AF00BFBD4679
:101F08005DF8047B704780B400AFFEE780B400AF93
:101F1800FEE780B400AFFEE780B400AFFEE780B410
:101F280000AF00BFBD465DF8047B704780B400AFCA
:101F380000BFBD465DF8047B704780B400AF00BFAA
:101F4800BD465DF8047B704780B500AFFEF762FBC5
:101F580000BF80BD80B483B000AF0346FB80FB8820
:101F68001B0A9BB21AB2FB881B021BB213431BB29B
:101F78009BB218460C37BD465DF8047B704780B4A9
:101F880083B000AF78607B681B0CDAB27B6803F41F
:101F98007F431A437B681B0403F47F0313431846EB
:101FA8000C37BD465DF8047B704780B400AF00BFB6
:101FB800BD465DF8047B704780B500AF002208215C
:101FC8000248FEF7E7FD00BF80BD00BF00000240E9
:101FD80080B500AF012208210248FEF7DBFD00BFF3
:101FE80080BD00BF0000024080B584B000AF03464A
:101FF8000A46FB711346BB710123FB73FB7903F09F
:102008007F03DBB23B73BB797B73FFF7D5FF07F127
:102018000C010A2302220848FFF735FA0346FB732E
:10202800FFF7D6FFFB7B002B01D0FFF7BEFF00BFF9
:102038001037BD4680BD00BF4400002080B586B083
:1020480002AF0346FB710123FB73FB793B7300234B
:102058007B7300233B81FFF7AFFF07F1080207F10D
:102068000C010A23009302230848FFF73EFB0346AE
:10207800FB73FFF7ADFFFB7B002B01D0FFF795FF4C
:102088007B7A18461037BD4680BD00BF440000204B
:1020980080B586B002AF03463960FB710123FB733C
:1020A800FB793B7300237B730023BB7307F10803A1
:1020B80000210A461A800A469A70FFF77DFF07F149
:1020C800080207F10C010A23009303230C48FFF7C9
:1020D8000CFB0346FB73FFF77BFFFB7B002B01D058
:1020E800FFF763FFBB7A1B021AB27B7A1BB213435A
:1020F8001BB29AB23B681A8000BF1037BD4680BD3C
:102108004400002080B588B002AF03463960FB71F7
:102118000123FB75FB793B7400237B740023BB749C
:102128000023FB740023FB60FFF746FF07F10C0256
:1021380007F110010A23009304230D48FFF7D5FA8D
:102148000346FB75FFF744FFFB7D002B01D0FFF72B
:102158002CFFFB7B1A04BB7B1B0213437A7B1343C4
:102168001A463B681A6000BF1837BD4680BD00BFDD
:102178004400002090B585B000AF044608461146DB
:102188001A462346FB710346BB710B467B71134607
:102198003B71FEF753FAF860D02000F0D5FB0346F8
:1021A8001A46494B1A70484B1B78602B03D0FFF72F
:1021B800FCFE012384E0444AFB795370424ABB7910
:1021C8009370414A7B79D3703F4A3B7913713E4AF9
:1021D80097F8203053713C4A97F824309371B62110
:1021E800E02000F09FFB09E0FEF728FA0246FB68B2
:1021F800D21A3B8D9A4201D9012361E000F0C6FB57
:10220800034603F00103002BEED100F0B1FC2E4B86
:102218005B78184600F0B6FC2B4B9B78184600F00C
:10222800D2FC294BDB78184600F0EEFC264B1B79D4
:10223800184600F00AFD244B5B79184600F026FD8D
:10224800F42000F081FB03461A461F4B9A60F220E7
:1022580000F07AFB03461B021A461B4B9A601A4B86
:102268009B6803F0E003002B14BF01230023D9B2BD
:10227800154A137B61F300031373134B9B6803F038
:102288001C03002B14BF01230023D9B20E4A137B71
:1022980061F3410313730C4B9B681B0A03F007039C
:1022A800002B14BF01230023D9B2074A137B61F323
:1022B80082031373044B9B79184600F012FD002328
:1022C80018461437BD4690BDC000002080B584B0C4
:1022D80000AF4FF00003FB6000233B603B4619460C
:1022E800FA2000F098FB3B68B3F5000F01D1244BAE
:1022F8003EE03B681B093B603B68DB08214A1288CB
:1023080052009B1A1F4AB2F9022002FB03F3DB0AB0
:10231800BB603B681B091B4A12889B1A3A68120962
:1023280018490988521A02FB03F31B0B154AB2F924
:10233800042002FB03F39B0B7B60BA687B681344A1
:10234800114A1360104B1A6813469B0013448033DC
:102358001B1207EE903AF8EEE77AC7ED037A97ED8D
:10236800037ADFED0A6AC7EE267AC7ED037AFB68BF
:1023780007EE903AB0EE670A1037BD4680BD00BF41
:1023880000FF7F479C0000202C0000200000C8426E
:102398002DE9B04FA8B000AF4FF00003C7F89C304C
:1023A8004FF000034FF00004C7E9243400237B6793
:1023B8000023C7F88C304FF000034FF00004C7E942
:1023C80020344FF000034FF00004C7E91E34FFF734
:1023D8007DFF07F174031946F72000F01CFB7B6FA3
:1023E800B3F5000F01D1704B04E27B6F1B097B67CB
:1023F8006E4B1B684FEAE374B3F5FA3344F1FF34CC
:10240800C7E92034D7F88420D7F8803003FB02F1DD
:10241800D7F88420D7F8803003FB02F3CC18D7F81C
:102428008020D7F88030A2FB030163181946604B5F
:10243800B3F910301BB24FEAE37403FB01F500FB5C
:1024480004F22A44A0FB033422441446C7E91E348C
:10245800C7E91E34564BB3F90E301BB24FEAE3748A
:10246800D7F8802004FB02F1D7F8842003FB02F29E
:102478001144D7F88020A2FB03340A1914464FEA06
:10248800444949EAD3394FEA4348D7E91E3413EBA4
:10249800080344EB0904C7E91E34454BB3F90C3073
:1024A8001BB24FEAE374DB00FB600023BB60D7E993
:1024B8001E34D7E90212C91842EB04020B4614462F
:1024C800C7E91E34D7F88420D7F8803003FB02F11F
:1024D800D7F88420D7F8803003FB02F3CC18D7F85C
:1024E8008020D7F88030A2FB030163181946304BCF
:1024F800B3F90A301BB24FEAE37403FB01F500FBA2
:1025080004F22A44A0FB0334224414461A0ABA6689
:10251800BA6E42EA0462BA662312FB66244BB3F928
:1025280008301BB24FEAE374D7F8802004FB02F1AD
:10253800D7F8842003FB02F21144D7F88020A2FBCD
:1025480003340A1914464FEA043B4BEA135B4FEA7B
:10255800033AD7E91A3413EB0A0344EB0B04C7E92F
:102568002034D7E92034191C44F50042104BDB888D
:102578009BB24FF0000403FB02F501FB04F0284472
:10258800A1FB03340219144662103A60E3177B601A
:1025980097E81800C7E92034D7E92034234309D144
:1025A8004FF0000326E100BF00FF7F472C0000200A
:1025B8009C0000207B6FC3F580134FF00004C7E92F
:1025C8002434D7E92434E2077A667A6E42EA530261
:1025D8007A66DB073B66D7E91E34D7E91812C91AB1
:1025E80062EB04020B461446DB1844EB04045B1848
:1025F80044EB0204A0017863786B40EA9360786347
:1026080098013863D7E90C8918EB030849EB0409EA
:1026180043464C46A000F862F86A40EA9370F862B4
:102628009B00BB62D7E90A345B1844EB0204A000A4
:102638007862786A40EA937078629B003B62D7E9D7
:10264800083413EB010844EB020940464946D7E930
:102658002023FDF7B5FD03460C46C7E92434694B32
:10266800B3F9163019B24FEAE172D7E92434580B9E
:10267800B865B86D40EAC440B8656313FB65D7E92F
:102688001645234603FB02F02B4601FB03F30344E4
:102698002046A1FB00010B441946D7E924345A0B04
:1026A8003A653A6D42EAC4423A6563137B65D7E9F5
:1026B8001445234603FB01F22B4600FB03F31A449F
:1026C8002346A0FB0334224414465A0EBA61BA6961
:1026D80042EAC412BA616316FB61D7E90634C7E956
:1026E8002034484BB3F914301BB24FEAE374D7F8DF
:1026F800902004FB02F1D7F8942003FB02F20A446D
:10270800D7F89010A1FB033422441446DA0C3A613E
:102718003A6942EA44323A61E3147B61D7E9043406
:10272800C7E91E34D7E92412D7E92034C91842EB87
:102738000402D7E91E345B1844EB02041A0ABA648F
:10274800BA6C42EA0462BA642312FB642D4BB3F9F3
:1027580012301BB24FEAE37422017A647A6C42EABF
:1027680013727A641B013B64D7E91234D7E910125B
:102778005B1844EB0204C7E92434D7E924341A0A65
:10278800BA63BA6B42EA0462BA632312FB63BA6B98
:102798004FF47A7303FB02F5D7E924344FF0FF01B5
:1027A8004FF0000203EA010304EA0204164A02FB9E
:1027B80004F1002202FB03F20A441349A3FB0101BE
:1027C80053181946114A4FF00003FDF7F9FC034668
:1027D8000C462B44C7F88C30D7F88C3007EE903A6B
:1027E800B8EE677ADFED0A6AC7EE267AC7ED277A70
:1027F800D7F89C3007EE903AB0EE670AA037BD468E
:10280800BDE8B08F9C000020E1F50500A08601001E
:102818000000C84280B584B000AF4FF00003FB60F1
:1028280000237B800023BB6000237B60FFF74EFD05
:10283800BB1C1946FD2000F0D6F8B7F902309BB250
:10284800BB60354B1B68A3F596337B60BB689A0366
:10285800324BB3F91E301B05D21A304BB3F9203076
:1028680019467B6803FB01F3D31A03F58043DB1396
:102878002A4A92F9222011467A6802FB01F2921242
:102888002649097F0846796801FB00F1C91201F55C
:10289800004101FB02F2921202F500121F49B1F940
:1028A8001A1001FB02F202F50052921302FB03F325
:1028B8007B607B68DB137A68D21302FB03F3DB11BE
:1028C800164A127E02FB03F31B117A68D31A7B6047
:1028D8007B6823EAE3737B607B68B3F1C85FA8BFBA
:1028E8004FF0C8537B607B681B1307EE903AF8EEF5
:1028F800E77AC7ED037A97ED037ADFED096AC7EE49
:10290800267AC7ED037AFB6807EE903AB0EE670ABD
:102918001037BD4680BD00BF2C0000209C00002061
:102928000000804480B582B000AF03460A46FB71C0
:102938001346BB71BA79FB7911461846FFF754FB69
:1029480000BF0837BD4680BD80B584B000AF0346E0
:10295800FB71FB791846FFF771FB0346FB73FB7BA2
:1029680018461037BD4680BD80B582B000AF03461B
:102978003960FB71FB791846FFF760FB03461A467E
:102988003B681A7000BF0837BD4680BD80B582B06D
:1029980000AFF320FFF7D8FF034603F00903FB71EC
:1029A800FB7918460837BD4680BD80B582B000AFB8
:1029B80003463960FB71FB7939681846FFF768FBF5
:1029C80000BF0837BD4680BD80B582B000AF034662
:1029D8003960FB71FB7939681846FFF759FB00BF6E
:1029E8000837BD4680BD80B582B000AF0346396068
:1029F800FB71FB7939681846FFF74AFB3B681B886F
:102A08001846FFF7A7FA03461A463B681A8000BF24
:102A18000837BD4680BD80B582B000AF0346396037
:102A2800FB71FB7939681846FFF76CFB3B681B683C
:102A38001846FFF7A4FA034623F07F423B681A6062
:102A480000BF0837BD4680BD80B500AF0649882065
:102A5800FFF7ABFF05498A20FFF7B6FF04498C2032
:102A6800FFF7B2FF00BF80BD9C0000209E00002041
:102A7800A000002080B500AF12498E20FFF795FF17
:102A880011499020FFF7A0FF10499220FFF79CFF03
:102A98000F499420FFF798FF0E499620FFF794FFFF
:102AA8000D499820FFF790FF0C499A20FFF78CFFFB
:102AB8000B499C20FFF788FF0A499E20FFF784FFF7
:102AC80000BF80BDA2000020A4000020A6000020B6
:102AD800A8000020AA000020AC000020AE000020C2
:102AE800B0000020B200002098B500AF1C49A1201A
:102AF800FFF73AFF1B49E120FFF766FF1A49E32079
:102B0800FFF732FFE420FFF71FFF03461B011CB24B
:102B1800E520FFF719FF03461BB203F00F031BB2B2
:102B280023431AB2114BDA83E620FFF70DFF034661
:102B38001B011CB2E520FFF707FF03461B09DBB2A8
:102B48001BB223431AB2094B1A84E720FFF7FCFE95
:102B580003465AB2054B83F8222000BF98BD00BF38
:102B6800B4000020B6000020B80000209C0000201F
:102B780080B500AFFFF768FFFFF77CFFFFF7B4FFF2
:102B880000BF80BD80B584B000AF0346FB71002351
:102B9800FB73F520FFF7D8FE034603F01F03FB7312
:102BA80097F9073023F01F035AB297F90F301343F0
:102BB8005BB2FB73FB7B1946F520FFF7B3FE00BF42
:102BC8001037BD4680BD80B584B000AF0346FB71A9
:102BD8000023FB73F520FFF7B7FE034623F01C0321
:102BE800FB7397F9073003F01C035AB297F90F30BB
:102BF80013435BB2FB73FB7B1946F520FFF792FE8C
:102C080000BF1037BD4680BD80B584B000AF034615
:102C1800FB710023FB73F420FFF796FE034603F0D5
:102C28001F03FB7397F9073023F01F035AB297F974
:102C38000F3013435BB2FB73FB7B1946F420FFF79D
:102C480071FE00BF1037BD4680BD80B584B000AFAF
:102C58000346FB710023FB73F420FFF775FE034660
:102C680023F01C03FB7397F9073003F01C035AB2D7
:102C780097F90F3013435BB2FB73FB7B1946F420C3
:102C8800FFF750FE00BF1037BD4680BD80B584B049
:102C980000AF0346FB710023FB73F220FFF754FEDD
:102CA800034623F00703FB7397F9073003F0070384
:102CB8005AB297F90F3013435BB2FB73FB7B19468B
:102CC800F220FFF72FFEF420FFF73EFE0346FB73CA
:102CD800FB7B1946F420FFF725FE00BF1037BD46E1
:102CE80080BD80B584B000AF0346FB710023FB7341
:102CF800F420FFF729FE034623F00303FB7397F93B
:102D0800073003F003035AB297F90F3013435BB24D
:102D1800FB73FB7B1946F420FFF704FE00BF103756
:102D2800BD4680BD80B400AF164A164BD3F8883034
:102D380043F47003C2F88830134A134B1B6843F0FE
:102D480001031360104B00229A600F4A0E4B1B6858
:102D580023F0847323F4803313600B4B0B4A5A60BF
:102D6800094A094B1B6823F480231360064B002291
:102D7800DA60044B4FF000629A6000BFBD465DF810
:102D8800047B704700ED00E000380240103000245A
:102D9800DFF834D0002103E00C4B5B58435004317A
:102DA8000B480C4B42189A42F6D30B4A02E0002318
:102DB80042F8043B094B9A42F9D3FFF7B3FF00F0FE
:102DC80011F8FEF7DFFE7047000002207C2E000895
:102DD800000000200C0000200C000020D000002083
:102DE800FEE7000070B50D4E0D4CA41BA410002585
:102DF800A54209D10B4E0C4C00F020F8A41BA410DE
:102E08000025A54205D170BD56F8253098470135F3
:102E1800EEE756F8253098470135F2E7742E00089A
:102E2800742E0008742E0008782E00080244034609
:102E3800934200D1704703F8011BF9E7F8B500BFCA
:102E4800F8BC08BC9E467047F8B500BFF8BC08BC83
:042E58009E467047DB
:102E5C00000000000000000001020304060708093E
:082E6C002CD4FF7F01000000DF
:042E7400AD010008A4
:042E780089010008C4
:0C2E7C0010000000010000000024F40021
:0400000508002D9929
:00000001FF
